:100000000C942A000C9447000C9447000C94470071
:100010000C9447000C9447000C9447000C94470044
:100020000C9447000C9447000C9447000C94470034
:100030000C9447000C9447000C9447000C94470024
:100040000C9447000C9447000C9447000C94470014
:100050000C94470011241FBECFE5D8E0DEBFCDBF12
:1000600010E0A0E6B0E0ECEEFEE002C005900D92DC
:10007000A837B107D9F720E0A8E7B0E001C01D928A
:10008000AD37B207E1F70E9460020C9474070C943C
:10009000000087B187B9379A329A089597B1892BB2
:1000A00087B9369A349BFECF349A84B125B190E05B
:1000B000922B0895813081F028F08230B9F083309E
:1000C000F9F008958AB3942F909589238ABB8AB357
:1000D0006423682B6ABB089587B3942F9095892376
:1000E00087BB87B36423682B67BB089584B3942FC1
:1000F0009095892384BB84B36423682B64BB0895E3
:1001000081B3942F9095892381BB81B36423682B9D
:1001100061BB0895813081F028F08230B9F08330DE
:10012000F9F008958BB3942F909589238BBB8BB3F3
:100130006423682B6BBB089588B3942F9095892313
:1001400088BB88B36423682B68BB089585B3942F5C
:100150009095892385BB85B36423682B65BB08957F
:1001600082B3942F9095892382BB82B36423682B3A
:1001700062BB0895CF93DF93C0E6D0E048E060E033
:1001800088810E948A0087EE93E00197F1F700C012
:10019000000048E06FEF88810E948A0087EB9BE0B7
:1001A0000197F1F700C00000DF91CF9108951F93F0
:1001B000CF93DF93182FC0E6D0E042E060E0888163
:1001C0000E948A0044E060E088810E948A004A819F
:1001D00060E089810E948A00612F607F4A81898165
:1001E0000E948A000E94BA004A8160E089810E94D0
:1001F0008A00612F6295607F4A8189810E948A000E
:100200000E94BA00DF91CF911F910895CF93DF93A1
:10021000C0E6D0E04EE06FEF88810E945A004A812C
:100220006FEF89810E945A0048E06FEF88810E9439
:100230008A0083E30E94D70082E30E94D70088E20D
:100240000E94D7008CE00E94D700DF91CF910895E3
:100250001F93CF93DF93182FC0E6D0E042E06FEFFB
:1002600088810E948A0044E060E088810E948A00C0
:100270004A8160E089810E948A00612F607F4A8103
:1002800089810E948A000E94BA004A8160E08981C7
:100290000E948A00612F6295607F4A8189810E9455
:1002A0008A000E94BA00DF91CF911F9108956130BA
:1002B00041F028F0623039F0633039F008C08058DE
:1002C00007C0805405C0805803C0805801C080E832
:1002D0000E94D700089581E00E94D7000895CF932F
:1002E000DF93EC018881882331F021960E94280158
:1002F00089918111FBCFDF91CF9108950F931F93C7
:10030000CF93DF9300D000D0CDB7DEB79F938F930C
:1003100086E690E09F938F938E010F5F1F4F1F9390
:100320000F930E949C04C8010E946F010F900F90D0
:100330000F900F900F900F900F900F900F900F90C5
:10034000DF91CF911F910F9108958F929F92AF925D
:10035000BF92CF92DF92EF92FF920F931F93CF93B2
:10036000DF9300D000D000D0CDB7DEB74B015C01E9
:100370000E946B036B017C01072E000C880B990B0C
:100380000E94A3039B01AC01C501B4010E948C0231
:1003900020E030E048EC52E40E942F040E946B03FE
:1003A0007F936F93DF92CF9283E690E09F938F933A
:1003B0008E010F5F1F4F1F930F930E949C04C80173
:1003C0000E946F010FB6F894DEBF0FBECDBF269618
:1003D0000FB6F894DEBF0FBECDBFDF91CF911F9156
:1003E0000F91FF90EF90DF90CF90BF90AF909F90D4
:1003F0008F900895CF92DF92EF92FF921F93CF9349
:10040000DF93182F6A017B01E9010E9449001093D4
:100410007C00BE0180E090E00E94A1039B01AC0142
:10042000C701B6010E94F90220E030E04AE754E437
:100430000E942F049B01AC0160E070E080E291E437
:100440000E94F902609378007093790080937A009B
:1004500090937B00DF91CF911F91FF90EF90DF9001
:10046000CF90089580917C000E944E00BC0180E0F6
:1004700090E00E94A1032091780030917900409192
:100480007A0050917B000E94F902089580917C00CF
:100490000E944E00BC017727072E000C880B990B99
:1004A0000E94A303209178003091790040917A0056
:1004B00050917B000E94F9020E947203862F0895DA
:1004C0002FEF33E040E050E060EA70E480E00E940B
:1004D000FA010E9406010E946B0189E690E00E94E9
:1004E0006F010E9432020E94A50161E080E00E943B
:1004F000570182E790E00E946F010E94460290E05F
:100500000E947E012FEF84E39CE0215080409040C8
:10051000E1F700C00000DFCF5058BB27AA270E9498
:10052000A4020C94F5030E94E70338F00E94EE0346
:1005300020F039F49F3F19F426F40C94E4030EF4F0
:10054000E095E7FB0C94DE03E92F0E94060458F3C4
:10055000BA17620773078407950720F079F4A6F5A8
:100560000C9428040EF4E0950B2EBA2FA02D0B014D
:10057000B90190010C01CA01A0011124FF27591BE8
:1005800099F0593F50F4503E68F11A16F040A22FEE
:10059000232F342F4427585FF3CF4695379527955F
:1005A000A795F0405395C9F77EF41F16BA0B620B5E
:1005B000730B840BBAF09150A1F0FF0FBB1F661FA5
:1005C000771F881FC2F70EC0BA0F621F731F841FE8
:1005D00048F4879577956795B795F7959E3F08F00E
:1005E000B0CF9395880F08F09927EE0F97958795D0
:1005F00008950E940D030C94F5030E94EE0358F039
:100600000E94E70340F029F45F3F29F00C94DE03D9
:1006100051110C9429040C94E4030E94060468F31D
:100620009923B1F3552391F3951B550BBB27AA27AB
:1006300062177307840738F09F5F5F4F220F331FE5
:10064000441FAA1FA9F335D00E2E3AF0E0E832D0AD
:1006500091505040E695001CCAF72BD0FE2F29D0B0
:10066000660F771F881FBB1F261737074807AB0782
:10067000B0E809F0BB0B802DBF01FF2793585F4FF7
:100680003AF09E3F510578F00C94DE030C94290457
:100690005F3FE4F3983ED4F3869577956795B795D9
:1006A000F7959F5FC9F7880F911D9695879597F9E4
:1006B0000895E1E0660F771F881FBB1F621773075D
:1006C0008407BA0720F0621B730B840BBA0BEE1F72
:1006D00088F7E09508950E9472036894B1110C9414
:1006E000290408950E940E0488F09F5798F0B92FAE
:1006F0009927B751B0F0E1F0660F771F881F991F57
:100700001AF0BA95C9F714C0B13091F00E942804CC
:10071000B1E008950C942804672F782F8827B85FDC
:1007200039F0B93FCCF3869577956795B395D9F7AE
:100730003EF490958095709561957F4F8F4F9F4FB8
:100740000895E89409C097FB3EF4909580957095C4
:1007500061957F4F8F4F9F4F9923A9F0F92F96E90D
:10076000BB279395F695879577956795B795F11182
:10077000F8CFFAF4BB0F11F460FF1BC06F5F7F4F1F
:100780008F4F9F4F16C0882311F096E911C0772331
:1007900021F09EE8872F762F05C0662371F096E83A
:1007A000862F70E060E02AF09A95660F771F881F09
:1007B000DAF7880F9695879597F9089597F99F67C7
:1007C00080E870E060E008959FEF80EC08950024D9
:1007D0000A941616170618060906089500240A94A6
:1007E00012161306140605060895092E0394000C2C
:1007F00011F4882352F0BB0F40F4BF2B11F460FFBB
:1008000004C06F5F7F4F8F4F9F4F089557FD9058E3
:10081000440F551F59F05F3F71F04795880F97FBC4
:10082000991F61F09F3F79F087950895121613067E
:100830001406551FF2CF4695F1DF08C016161706AD
:100840001806991FF1CF86957105610508940895E2
:10085000E894BB2766277727CB0197F908950E9474
:1008600042040C94F5030E94E70338F00E94EE0363
:1008700020F0952311F00C94DE030C94E403112472
:100880000C9429040E94060470F3959FC1F3950F00
:1008900050E0551F629FF001729FBB27F00DB11D04
:1008A000639FAA27F00DB11DAA1F649F6627B00D94
:1008B000A11D661F829F2227B00DA11D621F739F7D
:1008C000B00DA11D621F839FA00D611D221F749F8B
:1008D0003327A00D611D231F849F600D211D822FD2
:1008E000762F6A2F11249F5750409AF0F1F08823F9
:1008F0004AF0EE0FFF1FBB1F661F771F881F915026
:100900005040A9F79E3F510580F00C94DE030C94F3
:1009100029045F3FE4F3983ED4F386957795679575
:10092000B795F795E7959F5FC1F7FE2B880F911D4F
:100930009695879597F90895AEE0B0E0E2EAF4E085
:100940000C944B070D891E8986E08C831A830983DA
:100950008FEF9FE79E838D83AE01475E5F4F6F8968
:10096000788DCE0101960E94BF042F813885F80151
:10097000E20FF31F10822E96E4E00C946707ACE0C0
:10098000B0E0E5ECF4E00C943D077C016B018A01DA
:10099000FC0117821682838181FFBDC1CE010196C1
:1009A0004C01F7019381F60193FD859193FF8191AD
:1009B0006F01882309F4ABC1853239F493FD859129
:1009C00093FF81916F01853229F4B70190E00E9475
:1009D000A706E7CF512C312C20E02032A0F48B3237
:1009E00069F030F4803259F0833269F420612CC010
:1009F0008D3239F0803339F4216026C022602460C2
:100A000023C0286021C027FD27C030ED380F3A30C1
:100A100078F426FF06C0FAE05F9E300D1124532EB5
:100A200013C08AE0389E300D1124332E20620CC092
:100A30008E3221F426FD6BC1206406C08C3611F481
:100A4000206802C0883641F4F60193FD859193FF3A
:100A500081916F018111C1CF982F9F7D9554933063
:100A600028F40C5F1F4FFFE3F9830DC0833631F08C
:100A7000833771F0833509F05BC022C0F8018081B3
:100A800089830E5F1F4F44244394512C540115C099
:100A90003801F2E06F0E711CF801A080B18026FFD2
:100AA00003C0652D70E002C06FEF7FEFC5012C879A
:100AB0000E949C062C0183012C852F77222E17C0C3
:100AC0003801F2E06F0E711CF801A080B18026FFA2
:100AD00003C0652D70E002C06FEF7FEFC5012C876A
:100AE0000E9491062C012C852068222E830123FC74
:100AF0001BC0832D90E048165906B0F4B70180E280
:100B000090E00E94A7063A94F4CFF50127FC859166
:100B100027FE81915F01B70190E00E94A706311086
:100B20003A94F1E04F1A51084114510471F7E5C0AD
:100B3000843611F0893639F5F80127FF07C0608146
:100B40007181828193810C5F1F4F08C06081718128
:100B5000072E000C880B990B0E5F1F4F2F76722EFD
:100B600097FF09C090958095709561957F4F8F4F45
:100B70009F4F2068722E2AE030E0A4010E94DF0619
:100B8000A82EA81844C0853729F42F7EB22E2AE05B
:100B900030E025C0F22FF97FBF2E8F36C1F018F458
:100BA000883579F0B4C0803719F0883721F0AFC0AC
:100BB0002F2F2061B22EB4FE0DC08B2D8460B82E75
:100BC00009C024FF0AC09F2F9660B92E06C028E0F6
:100BD00030E005C020E130E002C020E132E0F80161
:100BE000B7FE07C060817181828193810C5F1F4FC6
:100BF00006C06081718180E090E00E5F1F4FA4010C
:100C00000E94DF06A82EA818FB2DFF777F2E76FE08
:100C10000BC0372D3E7FA51450F474FE0AC072FC41
:100C200008C0372D3E7E05C0BA2C372D03C0BA2C24
:100C300001C0B52C34FF0DC0FE01EA0DF11D80810D
:100C4000803311F4397E09C032FF06C0B394B394E7
:100C500004C0832F867809F0B39433FD13C030FFAE
:100C600006C05A2CB31418F4530C5B18B32CB314ED
:100C700068F4B70180E290E03C870E94A706B39435
:100C80003C85F5CFB31410F43B1801C0312C34FF70
:100C900012C0B70180E390E03C870E94A7063C8524
:100CA00032FF17C031FD03C088E790E002C088E53D
:100CB00090E0B7010CC0832F867859F031FF02C055
:100CC0008BE201C080E237FD8DE2B70190E00E9427
:100CD000A706A51438F4B70180E390E00E94A706A8
:100CE0005A94F7CFAA94F401EA0DF11D8081B7015F
:100CF00090E00E94A706A110F5CF332009F451CE51
:100D0000B70180E290E00E94A7063A94F6CFF7017F
:100D10008681978102C08FEF9FEF2C96E2E10C94C1
:100D20005907FC010590615070400110D8F780957B
:100D300090958E0F9F1F0895FC01615070400190A7
:100D40000110D8F7809590958E0F9F1F08950F93EF
:100D50001F93CF93DF93FB01238121FD03C08FEF0E
:100D60009FEF28C022FF16C046815781248135811C
:100D70004217530744F4A081B1819D012F5F3F4F7B
:100D8000318320838C93268137812F5F3F4F3783B8
:100D9000268310C0EB01092F182F0084F185E02D68
:100DA0000995892BE1F68E819F8101969F838E8321
:100DB000812F902FDF91CF911F910F910895FA010C
:100DC000AA27283051F1203181F1E8946F936E7F8A
:100DD0006E5F7F4F8F4F9F4FAF4FB1E03ED0B4E07B
:100DE0003CD0670F781F891F9A1FA11D680F791FBC
:100DF0008A1F911DA11D6A0F711D811D911DA11DCD
:100E000020D009F468943F912AE0269F11243019DC
:100E1000305D3193DEF6CF010895462F4770405D77
:100E20004193B3E00FD0C9F7F6CF462F4F70405D26
:100E30004A3318F0495D31FD4052419302D0A9F781
:100E4000EACFB4E0A6959795879577956795BA957B
:100E5000C9F700976105710508959B01AC010A2E41
:100E600006945795479537952795BA95C9F7620F18
:100E7000731F841F951FA01D08952F923F924F92BC
:100E80005F926F927F928F929F92AF92BF92CF921A
:100E9000DF92EF92FF920F931F93CF93DF93CDB723
:100EA000DEB7CA1BDB0B0FB6F894DEBF0FBECDBF9B
:100EB00009942A88398848885F846E847D848C846C
:100EC0009B84AA84B984C884DF80EE80FD800C8175
:100ED0001B81AA81B981CE0FD11D0FB6F894DEBF58
:0C0EE0000FBECDBFED010895F894FFCFC8
:100EEC000000F025642E256400666C6F6174203A56
:080EFC0020007538203A2000A7
:00000001FF
